:020000040000FA
:100000000C9462000C948A000C948A000C948A0070
:100010000C948A000C948A000C948A000C948A0038
:100020000C948A000C948A000C948A000C948A0028
:100030000C948A000C948A000C948A000C948A0018
:100040000C942A060C948A000C94F8050C94D205A2
:100050000C948A000C948A000C948A000C948A00F8
:100060000C948A000C948A000000000023002600F3
:10007000290000000000240027002A0000000000E2
:10008000250028002B0004040404040404040202D4
:100090000202020203030303030301020408102007
:1000A0004080010204081020010204081020000012
:1000B0000008000201000003040700000000000027
:1000C0000000B90611241FBECFEFD8E0DEBFCDBFC0
:1000D00011E0A0E0B1E0E4E9F6E102C005900D9284
:1000E000A039B107D9F722E0A0E9B1E001C01D9223
:1000F000AA35B207E1F710E0C2E6D0E004C02197CC
:10010000FE010E94420BC136D107C9F70E940307C6
:100110000C94480B0C940000DC01ED91FC910190D3
:10012000F081E02D0994AF92BF92CF92DF92EF92CF
:10013000FF920F931F93CF93DF936C017B018B0191
:10014000040F151FEB015E01AE18BF08C017D107E1
:1001500059F06991D601ED91FC910190F081E02D6B
:10016000C6010995892B79F7C501DF91CF911F91C0
:100170000F91FF90EF90DF90CF90BF90AF900895D8
:10018000FC01538D448D252F30E0842F90E0821B9D
:10019000930B541710F0CF96089501970895FC0122
:1001A000918D828D981761F0A28DAE0FBF2FB11D7A
:1001B0005D968C91928D9F5F9F73928F90E00895D2
:1001C0008FEF9FEF0895FC01918D828D981731F08C
:1001D000828DE80FF11D858D90E008958FEF9FEFE0
:1001E0000895FC01918D228D892F90E0805C9F4FB6
:1001F000821B91098F739927089585EA91E00E94E7
:10020000F10021E0892B09F420E0822F089580E09D
:1002100090E0892B29F00E94FD0081110C940000D0
:100220000895FC01A48DA80FB92FB11DA35ABF4F8B
:100230002C91848D90E001968F739927848FA689E5
:10024000B7892C93A089B1898C91837080648C9339
:10025000938D848D981306C00288F389E02D8081E8
:100260008F7D80830895EF92FF920F931F93CF931A
:10027000DF93EC0181E0888F9B8D8C8D98131AC0E1
:10028000E889F989808185FF15C09FB7F894EE89C8
:10029000FF896083E889F989808183708064808325
:1002A0009FBF81E090E0DF91CF911F910F91FF9070
:1002B000EF900895F62E0B8D10E00F5F1F4F0F7318
:1002C0001127E02E8C8D8E110CC00FB607FCFACFD3
:1002D000E889F989808185FFF5CFCE010E9411015F
:1002E000F1CFEB8DEC0FFD2FF11DE35AFF4FF082A4
:1002F0009FB7F8940B8FEA89FB8980818062CFCF0A
:10030000CF93DF93EC01888D8823B9F0AA89BB894C
:10031000E889F9898C9185FD03C0808186FD0DC037
:100320000FB607FCF7CF8C9185FFF2CF808185FF58
:10033000EDCFCE010E941101E9CFDF91CF91089559
:1003400090E0FC01E255FF4F2491FC01E656FF4F7F
:100350003491FC01EA57FF4FE491EE23C9F02223C8
:1003600039F0233001F1A8F4213019F1223029F1BC
:10037000F0E0EE0FFF1FE458FF4FA591B4918FB747
:10038000F894EC91611126C030953E233C938FBFC9
:1003900008952730A9F02830C9F0243049F780911A
:1003A00080008F7D03C0809180008F7780938000D4
:1003B000DFCF84B58F7784BDDBCF84B58F7DFBCF56
:1003C0008091B0008F778093B000D2CF8091B00041
:1003D0008F7DF9CF3E2BDACFCF93DF9390E0FC01F6
:1003E000E656FF4F24918A579F4FFC018491882342
:1003F000D1F090E0880F991FFC01EE58FF4FA591B6
:10040000B491FC01E458FF4FC591D49161110EC025
:100410009FB7F8948C91E22FE0958E238C932881DE
:10042000E223E8839FBFDF91CF9108958FB7F894BF
:10043000EC91E22BEC938FBFF6CF3FB7F89480910D
:10044000990190919A01A0919B01B0919C0126B5D0
:10045000A89B05C02F3F19F00196A11DB11D3FBFFC
:10046000BA2FA92F982F8827BC01CD01620F711DCB
:10047000811D911D42E0660F771F881F991F4A95C5
:10048000D1F708958F929F92AF92BF92CF92DF9251
:10049000EF92FF924B015C010E941D026B017C01F7
:1004A0000E941D026C197D098E099F09683E7340E8
:1004B00081059105A8F321E0821A9108A108B108ED
:1004C00088EEC80E83E0D81EE11CF11C8114910453
:1004D000A104B10429F7FF90EF90DF90CF90BF9077
:1004E000AF909F908F900895089590E080E00895D8
:1004F000FB0101900020E9F73197AF01461B570B34
:10050000DC01ED91FC910280F381E02D09948F9242
:100510009F92AF92BF92EF92FF920F931F93CF9350
:10052000DF93CDB7DEB7A1970FB6F894DEBF0FBE4D
:10053000CDBF7C01FA01CB0119A2223008F42AE0D8
:100540008E010F5D1F4F822E912CB12CA12CBF016B
:10055000A50194010E94200BF901CA016A300CF533
:10056000605DD8016E938D01232B242B252B79F709
:1005700090E080E0109721F0BD01C7010E94780251
:10058000A1960FB6F894DEBF0FBECDBFDF91CF911D
:100590001F910F91FF90EF90BF90AF909F908F9021
:1005A0000895695CDECF2F923F924F925F926F92D7
:1005B0007F928F929F92AF92BF92CF92DF92EF92F3
:1005C000FF921F93CF93DF93EC016A017B01722EA0
:1005D000AB019601CB01B6010E941B0B6EE171E0ED
:1005E000811126C046015701E894B7F82FEF3FEF7D
:1005F0004FE75FE7C501B4010E941B0B81110CC0DE
:100600002FEF3FEF4FE75FE7C501B4010E944A09B2
:1006100062E271E0181664F02FEF3FEF4FE75FE4FE
:10062000C701B6010E94A90A1816B4F466E271E087
:10063000CE01DF91CF911F91FF90EF90DF90CF908F
:10064000BF90AF909F908F907F906F905F904F90F2
:100650003F902F900C9478022FEF3FEF4FE75FEC25
:10066000C701B6010E944A0987FDE0CF20E030E0D3
:10067000A901C701B6010E944A09312C212C87FF2C
:1006800009C06DE2CE010E948C001C01F7FAF094C3
:10069000F7F8F09410E060E070E080E09FE37116FE
:1006A00041F020E030E040E251E40E944F091F5F3A
:1006B000F6CFA70196010E94DE082B013C010E94A3
:1006C000C8094B015C012AE0BC01A401CE010E94D3
:1006D00087027C01E20CF31C1123C1F1C501B401B6
:1006E0000E94F7099B01AC01C301B2010E94DD0821
:1006F0004B015C016EE2CE010E948C00E80EF91EF7
:10070000115020F120E030E040E251E4C501B40195
:100710000E94AE0A2B013C010E94C8094B01B12C7A
:10072000A12C2AE0B501A401CE010E948702E80EA7
:10073000F91EC501B4010E94F7099B01AC01C30178
:10074000B2010E94DD084B015C01DACFC701DF91E5
:10075000CF911F91FF90EF90DF90CF90BF90AF901F
:100760009F908F907F906F905F904F903F902F90D1
:100770000895CF93DF93EC0160E08E810E94A00189
:1007800061E08E810E94A00160E08E810E94A00144
:100790008BE891E00197F1F7DF91CF910895CF9227
:1007A000DF92EF92FF920F931F93CF93DF936C0131
:1007B0007C0187E0E80EF11CD0E0C0E0062F10E0DD
:1007C000B8010C2E02C0759567950A94E2F7617026
:1007D000F70181917F010E94A0012196C430D105CB
:1007E00079F7C601DF91CF911F910F91FF90EF90A4
:1007F000DF90CF900C94B903CF92DF92EF92FF92EB
:100800000F931F93CF93DF93EC01F62E642F8C810F
:100810000E94A0018D818F3F19F060E00E94A0012D
:100820000F2D10E08F8584FF25C06E0187E0C80E74
:10083000D11CF12CE12CB8010E2C02C075956795E6
:100840000A94E2F76170F60181916F010E94A001A4
:10085000FFEFEF1AFF0A88E0E816F10461F7CE0116
:10086000DF91CF911F910F91FF90EF90DF90CF908C
:100870000C94B903B80184E0759567958A95E1F702
:10088000CE010E94CF036F2DCE01DF91CF911F913A
:100890000F91FF90EF90DF90CF900C94CF0340E04A
:1008A000682F82E492E00C94FC0381E00E944F04E4
:1008B0008BE39FE10197F1F70895CF93DF938230A7
:1008C00029F49091510298609093510280935502BF
:1008D0001092560280E48093570280E18093580280
:1008E00080E58093590261E0809146020E94EC010C
:1008F000809147028F3F19F061E00E94EC0161E0B6
:10090000809148020E94EC01C2E4D2E09E01225490
:1009100032408091510284FD0BC084E090E021962A
:100920002817390744F461E08E810E94EC01EECF74
:1009300088E090E0F4CF8BE39DE00197F1F760E071
:10094000809146020E94A00160E0809148020E94CE
:10095000A001809147028F3F19F060E00E94A00142
:100960008091510284FD34C063E082E492E00E94F1
:10097000CF03CBE4D6E4CE010197F1F763E082E444
:1009800092E00E94CF032197F1F763E082E492E0C6
:100990000E94CF0383E592E00197F1F762E082E4E1
:1009A00092E00E94CF038091510280620E944F0426
:1009B00084E0809352028CE00E944F040E94550410
:1009C00082E08093530286E0DF91CF910C944F0434
:1009D00080620E944F048BE496E40197F1F78091C6
:1009E000510280620E944F0483E592E00197F1F783
:1009F0008091510280620E944F04D5CF90915502A0
:100A0000891710F08FEF890FE82FF0E0EE5BFD4FB4
:100A1000848980680C944F0441E00E94FC0381E0CB
:100A200090E00895CF92DF92EF92FF920F931F9381
:100A300060E08FE00E94A00183E090E00197F1F771
:100A400061E08FE00E94A00183E290E00197F1F75E
:100A500060E08FE00E94A001E8EAF0E06491E4E940
:100A6000F0E0E491F0E0EE0FFF1FE859FF4F8591B1
:100A7000949100E412E42FE030E0462F0E947406C7
:100A8000611571058105910529F06F5F7F4F8F4FCB
:100A90009F4F9F706093900170939101809392019A
:100AA000909393016AE271E085EA91E00E947802F6
:100AB000C0909D01D0909E010D2C000CEE08FF0807
:100AC0002AE0B701A601F7FE0DC06DE285EA91E0CC
:100AD0000E948C0044275527BA014C195D096E0904
:100AE0007F092AE085EA91E00E9487026CE371E0C9
:100AF00085EA91E00E94780280E00E94FE046FE3A4
:100B000071E082E492E00E947802C0909D01D09052
:100B10009E010D2C000CEE08FF082AE0B701A6018B
:100B2000F7FE0DC06DE282E492E00E948C00442743
:100B30005527BA014C195D096E097F092AE082E444
:100B400092E00E9487026CE471E082E492E00E94ED
:100B50007802609190017091910180919201909141
:100B600093010E94F90920E030E044EE51E40E9434
:100B70004F0920E030E040E05FE30E94AE0A0E94AF
:100B8000C10970939E0160939D01072E000C880B94
:100B9000990B0E94F9091F910F91FF90EF90DF9040
:100BA000CF9008951F920F920FB60F9211242F939A
:100BB0003F934F935F936F937F938F939F93AF93E5
:100BC000BF93EF93FF9385EA91E00E941101FF919B
:100BD000EF91BF91AF919F918F917F916F915F91B5
:100BE0004F913F912F910F900FBE0F901F9018952E
:100BF0001F920F920FB60F9211242F938F939F93F2
:100C0000EF93FF93E091B501F091B6018081E091FF
:100C1000BB01F091BC0182FD1BC090818091BE019F
:100C20008F5F8F732091BF01821741F0E091BE0169
:100C3000F0E0EB55FE4F958F8093BE01FF91EF9151
:100C40009F918F912F910F900FBE0F901F9018952D
:100C50008081F4CF1F920F920FB60F9211242F9321
:100C60003F938F939F93AF93BF9380919501909102
:100C70009601A0919701B09198013091940123E0E1
:100C8000230F2D3758F50196A11DB11D2093940116
:100C90008093950190939601A0939701B09398014A
:100CA0008091990190919A01A0919B01B0919C0132
:100CB0000196A11DB11D8093990190939A01A09373
:100CC0009B01B0939C01BF91AF919F918F913F91F8
:100CD0002F910F900FBE0F901F90189526E8230FAD
:100CE0000296A11DB11DD2CFCF92DF92EF92FF925B
:100CF0000F931F93E82FF92F05C001501109210907
:100D0000310961F1908196239417B9F305C0015020
:100D100011092109310911F1908196239413F7CF1C
:100D2000C12CD12CE12CF12C0AC08FEFC81AD80AA3
:100D3000E80AF80A0C151D052E053F0579F080819B
:100D40008623841791F36C2D7D2D8E2D9F2D1F9161
:100D50000F91FF90EF90DF90CF90089560E070E0EA
:100D600080E090E01F910F91FF90EF90DF90CF9087
:100D70000895E5EAF1E01382128288EE93E0A0E0A4
:100D8000B0E084839583A683B78384E091E0918368
:100D9000808385EC90E09587848784EC90E097874A
:100DA000868780EC90E0918B808B81EC90E0938B38
:100DB000828B82EC90E0958B848B86EC90E0978B15
:100DC000868B118E128E138E148EE2E4F2E0138263
:100DD000128286E191E09183808382E084838FEFA9
:100DE000858383E0868384E0878385E0808786E04F
:100DF000818787E082871386148615861686178674
:100E000081E00C945D04789484B5826084BD84B5DF
:100E1000816084BD85B5826085BD85B5816085BDF5
:100E200080916E00816080936E00109281008091AD
:100E30008100826080938100809181008160809335
:100E40008100809180008160809380008091B1005A
:100E500084608093B1008091B00081608093B00085
:100E600080917A00846080937A0080917A00826019
:100E700080937A0080917A00816080937A008091DB
:100E80007A00806880937A001092C10060E08EE062
:100E90000E94EC0161E08FE00E94EC0161E088E0DB
:100EA0000E94EC0161E089E00E94EC0161E08AE0CF
:100EB0000E94EC0161E08BE00E94EC0182E00E9464
:100EC0005D040E94550480E00E94FE0460E571E02C
:100ED00082E492E00E94780281E00E94FE0460E6D3
:100EE00071E082E492E00E94780260ED77E080E0B9
:100EF00090E00E9442020E945504E091B501F091F9
:100F0000B60182E08083E091B101F091B2011082DC
:100F1000E091B301F091B4018FEC80831092BD0198
:100F2000E091B901F091BA0186E08083E091B701C8
:100F3000F091B801808180618083E091B701F091E8
:100F4000B801808188608083E091B701F091B80199
:100F5000808180688083E091B701F091B801808141
:100F60008F7D808300E010E00E9412050E94C1097D
:100F70007093A4016093A30168EE73E080E090E0B9
:100F80000E9442020E9412050E94C1092091A30101
:100F90003091A401621B730B072E000C880B990B78
:100FA0000E94F90960939F017093A0018093A101B1
:100FB0009093A20161E771E085EA91E00E947802D6
:100FC00040919F015091A0016091A1017091A201F7
:100FD00022E085EA91E00E94D3026CE371E085EAA9
:100FE00091E00E94780281E00E94FE0462E871E0D4
:100FF00082E492E00E94780240919F015091A0010A
:101000006091A1017091A20122E082E492E00E942D
:10101000D302C0919D01D0919E01CE0101974897C6
:10102000A0F461E088E00E94A00162E370E080E04B
:1010300090E00E94420260E088E00E94A00162E32A
:1010400070E080E090E00E944202CE014A9748970B
:10105000A0F461E088E00E94A00168EC70E080E00C
:1010600090E00E94420260E088E00E94A00168ECEB
:1010700070E080E090E00E944202CE01C397489762
:10108000A0F461E089E00E94A00162E370E080E0EA
:1010900090E00E94420260E089E00E94A00162E3C9
:1010A00070E080E090E00E944202CE018C549109F1
:1010B0004897A0F461E089E00E94A00168EC70E02C
:1010C00080E090E00E94420260E089E00E94A0017E
:1010D00068EC70E080E090E00E944202CE0185560C
:1010E00091094897A0F461E08AE00E94A00162E3C0
:1010F00070E080E090E00E94420260E08AE00E949E
:10110000A00162E370E080E090E00E944202CE0124
:101110008E5791094897A0F461E08AE00E94A001EF
:1011200068EC70E080E090E00E94420260E08AE0BB
:101130000E94A00168EC70E080E090E00E94420212
:10114000CE01875991094897A0F461E08BE00E9495
:10115000A00162E370E080E090E00E94420260E063
:101160008BE00E94A00162E370E080E090E00E94CA
:101170004202C05BD1096897A0F461E08BE00E9455
:10118000A00168EC70E080E090E00E94420260E024
:101190008BE00E94A00168EC70E080E090E00E948B
:1011A00042020115110509F4DFCE0E94FD008823DB
:1011B00009F4DACE0E940000D7CE5058BB27AA27E8
:1011C0000E94F5080C946F0A0E94610A38F00E9490
:1011D000680A20F039F49F3F19F426F40C945E0A53
:1011E0000EF4E095E7FB0C94580AE92F0E94800A60
:1011F00058F3BA17620773078407950720F079F44C
:10120000A6F50C94A20A0EF4E0950B2EBA2FA02D91
:101210000B01B90190010C01CA01A0011124FF27A3
:10122000591B99F0593F50F4503E68F11A16F0409E
:10123000A22F232F342F4427585FF3CF469537959D
:101240002795A795F0405395C9F77EF41F16BA0B62
:10125000620B730B840BBAF09150A1F0FF0FBB1F10
:10126000661F771F881FC2F70EC0BA0F621F731F59
:10127000841F48F4879577956795B795F7959E3FB6
:1012800008F0B0CF9395880F08F09927EE0F979547
:10129000879508950E94340A08F481E008950E9419
:1012A00063090C946F0A0E94680A58F00E94610A50
:1012B00040F029F45F3F29F00C94580A51110C9426
:1012C000A30A0C945E0A0E94800A68F39923B1F382
:1012D000552391F3951B550BBB27AA27621773075C
:1012E000840738F09F5F5F4F220F331F441FAA1FF0
:1012F000A9F335D00E2E3AF0E0E832D091505040AC
:10130000E695001CCAF72BD0FE2F29D0660F771F59
:10131000881FBB1F261737074807AB07B0E809F03F
:10132000BB0B802DBF01FF2793585F4F3AF09E3FC4
:10133000510578F00C94580A0C94A30A5F3FE4F32B
:10134000983ED4F3869577956795B795F7959F5F07
:10135000C9F7880F911D9695879597F90895E1E053
:10136000660F771F881FBB1F621773078407BA07B2
:1013700020F0621B730B840BBA0BEE1F88F7E0950D
:1013800008950E94C8096894B1110C94A30A0895A5
:101390000E94880A88F09F5798F0B92F9927B75173
:1013A000B0F0E1F0660F771F881F991F1AF0BA9509
:1013B000C9F714C0B13091F00E94A20AB1E00895BB
:1013C0000C94A20A672F782F8827B85F39F0B93FAD
:1013D000CCF3869577956795B395D9F73EF49095BC
:1013E0008095709561957F4F8F4F9F4F0895E8943A
:1013F00009C097FB3EF490958095709561957F4F5D
:101400008F4F9F4F9923A9F0F92F96E9BB2793950A
:10141000F695879577956795B795F111F8CFFAF41A
:10142000BB0F11F460FF1BC06F5F7F4F8F4F9F4F4B
:1014300016C0882311F096E911C0772321F09EE8A9
:10144000872F762F05C0662371F096E8862F70E00F
:1014500060E02AF09A95660F771F881FDAF7880FE9
:101460009695879597F90895990F0008550FAA0B3F
:10147000E0E8FEEF16161706E807F907C0F01216A7
:101480001306E407F50798F0621B730B840B950BAA
:1014900039F40A2661F0232B242B252B21F40895FF
:1014A0000A2609F4A140A6958FEF811D811D08959C
:1014B00097F99F6780E870E060E008959FEF80EC07
:1014C000089500240A9416161706180609060895AA
:1014D00000240A9412161306140605060895092E10
:1014E0000394000C11F4882352F0BB0F40F4BF2B7F
:1014F00011F460FF04C06F5F7F4F8F4F9F4F0895BF
:1015000057FD9058440F551F59F05F3F71F04795B4
:10151000880F97FB991F61F09F3F79F08795089599
:10152000121613061406551FF2CF4695F1DF08C0B8
:10153000161617061806991FF1CF869571056105D5
:1015400008940895E894BB2766277727CB0197F97D
:1015500008950E94340A08F48FEF08950E94C10A8A
:101560000C946F0A0E94610A38F00E94680A20F009
:10157000952311F00C94580A0C945E0A11240C94D3
:10158000A30A0E94800A70F3959FC1F3950F50E063
:10159000551F629FF001729FBB27F00DB11D639F25
:1015A000AA27F00DB11DAA1F649F6627B00DA11DCB
:1015B000661F829F2227B00DA11D621F739FB00D71
:1015C000A11D621F839FA00D611D221F749F3327E1
:1015D000A00D611D231F849F600D211D822F762F7A
:1015E0006A2F11249F5750409AF0F1F088234AF057
:1015F000EE0FFF1FBB1F661F771F881F91505040C3
:10160000A9F79E3F510580F00C94580A0C94A30A48
:101610005F3FE4F3983ED4F3869577956795B79549
:10162000F795E7959F5FC1F7FE2B880F911D969563
:10163000879597F908950E94340A880B990B0895AD
:10164000A1E21A2EAA1BBB1BFD010DC0AA1FBB1FC6
:10165000EE1FFF1FA217B307E407F50720F0A21B38
:10166000B30BE40BF50B661F771F881F991F1A94A5
:1016700069F760957095809590959B01AC01BD01CF
:10168000CF010895EE0FFF1F0590F491E02D09940E
:10169000F894FFCF0000000033019300C0008001E8
:1016A000F100CF00E300000000000C05930075027C
:1016B00074026E616E00696E66006F766600446942
:1016C0007374616E636520696E20636D203A20003B
:1016D0000D0A00446973742E20696E20636D20002A
:1016E00020202000204F626A6563742020537065BB
:1016F000656420002020204D6561737572656D65FD
:101700006E74202000537065656420696E20636DDF
:101710002F7320203A0053706565642020636D2F7D
:041720007320000032
:107E0000112484B714BE81FFF0D085E080938100F7
:107E100082E08093C00088E18093C10086E0809377
:107E2000C20080E18093C4008EE0C9D0259A86E02C
:107E300020E33CEF91E0309385002093840096BBD3
:107E4000B09BFECF1D9AA8958150A9F7CC24DD24C4
:107E500088248394B5E0AB2EA1E19A2EF3E0BF2EE7
:107E6000A2D0813461F49FD0082FAFD0023811F036
:107E7000013811F484E001C083E08DD089C08234E0
:107E800011F484E103C0853419F485E0A6D080C0E4
:107E9000853579F488D0E82EFF2485D0082F10E0AE
:107EA000102F00270E291F29000F111F8ED06801E7
:107EB0006FC0863521F484E090D080E0DECF843638
:107EC00009F040C070D06FD0082F6DD080E0C81688
:107ED00080E7D80618F4F601B7BEE895C0E0D1E017
:107EE00062D089930C17E1F7F0E0CF16F0E7DF06D8
:107EF00018F0F601B7BEE89568D007B600FCFDCFD4
:107F0000A601A0E0B1E02C9130E011968C91119780
:107F100090E0982F8827822B932B1296FA010C0160
:107F200087BEE89511244E5F5F4FF1E0A038BF0790
:107F300051F7F601A7BEE89507B600FCFDCF97BE46
:107F4000E89526C08437B1F42ED02DD0F82E2BD052
:107F50003CD0F601EF2C8F010F5F1F4F84911BD097
:107F6000EA94F801C1F70894C11CD11CFA94CF0C13
:107F7000D11C0EC0853739F428D08EE10CD085E9AC
:107F80000AD08FE07ACF813511F488E018D01DD067
:107F900080E101D065CF982F8091C00085FFFCCF94
:107FA0009093C60008958091C00087FFFCCF809118
:107FB000C00084FD01C0A8958091C6000895E0E648
:107FC000F0E098E1908380830895EDDF803219F02E
:107FD00088E0F5DFFFCF84E1DECF1F93182FE3DFCA
:107FE0001150E9F7F2DF1F91089580E0E8DFEE27F6
:047FF000FF270994CA
:027FFE00040479
:00000001FF
